:020000040800F2
:100000000020002061200008F51F0008FB1F0008E9
:1000100000000000000000000000000000000000E0
:1000200000000000000000000000000001200008A7
:1000300000000000000000000B2000081520000850
:10004000B120000800000000B1200008B120000825
:10005000B1200008B1200008B1200008B12000083C
:1000600000000000B1200008B1200008B120000805
:10007000B1200008B1200008B120000800000000F5
:10008000B12000080000000000000000B1200008BE
:1000900000000000B1200008B1200008B1200008D5
:1000A00025200008B1200008B1200008B120000878
:0800B000B1200008000000006F
:1000B80010B5064C2378002B07D1054B002B02D036
:1000C800044800E000BF0123237010BD1C0000207D
:1000D80000000000AC4B0008044B10B5002B03D007
:1000E8000349044800E000BF10BDC04600000000FE
:1000F80020000020AC4B0008002243088B4274D338
:1001080003098B425FD3030A8B4244D3030B8B4210
:1001180028D3030C8B420DD3FF22090212BA030C19
:100128008B4202D31212090265D0030B8B4219D3FA
:1001380000E0090AC30B8B4201D3CB03C01A52411A
:10014800830B8B4201D38B03C01A5241430B8B4262
:1001580001D34B03C01A5241030B8B4201D30B034B
:10016800C01A5241C30A8B4201D3CB02C01A524172
:10017800830A8B4201D38B02C01A5241430A8B4235
:1001880001D34B02C01A5241030A8B4201D30B021E
:10019800C01A5241CDD2C3098B4201D3CB01C01A38
:1001A800524183098B4201D38B01C01A5241430942
:1001B8008B4201D34B01C01A524103098B4201D330
:1001C8000B01C01A5241C3088B4201D3CB00C01A9D
:1001D800524183088B4201D38B00C01A5241430815
:1001E8008B4201D34B00C01A5241411A00D201463A
:1001F800524110467047FFE701B5002000F0F0F8C3
:1002080002BDC0460029F7D076E7704703460B4386
:100218007FD4002243088B4274D303098B425FD3F7
:10022800030A8B4244D3030B8B4228D3030C8B4223
:100238000DD3FF22090212BA030C8B4202D3121209
:10024800090265D0030B8B4219D300E0090AC30BDE
:100258008B4201D3CB03C01A5241830B8B4201D38B
:100268008B03C01A5241430B8B4201D34B03C01A74
:100278005241030B8B4201D30B03C01A5241C30AEC
:100288008B4201D3CB02C01A5241830A8B4201D35D
:100298008B02C01A5241430A8B4201D34B02C01A47
:1002A8005241030A8B4201D30B02C01A5241CDD2EC
:1002B800C3098B4201D3CB01C01A524183098B4237
:1002C80001D38B01C01A524143098B4201D34B0120
:1002D800C01A524103098B4201D30B01C01A524183
:1002E800C3088B4201D3CB00C01A524183088B420A
:1002F80001D38B00C01A524143088B4201D34B00F3
:10030800C01A5241411A00D2014652411046704764
:100318005DE0CA0F00D04942031000D34042534069
:1003280000229C4603098B422DD3030A8B4212D329
:10033800FC22890112BA030A8B420CD3890192115B
:100348008B4208D3890192118B4204D389013AD098
:10035800921100E08909C3098B4201D3CB01C01A6D
:10036800524183098B4201D38B01C01A5241430980
:100378008B4201D34B01C01A524103098B4201D36E
:100388000B01C01A5241C3088B4201D3CB00C01ADB
:10039800524183088B4201D38B00C01A5241D9D2F3
:1003A80043088B4201D34B00C01A5241411A00D274
:1003B8000146634652415B10104601D34042002B70
:1003C80000D54942704763465B1000D3404201B5EF
:1003D800002000F005F802BD0029F8D016E77047A4
:1003E8007047C04670B500220C4B04000D0001F0A8
:1003F800E3F9002804D12000290001F043F970BD79
:10040800064B00222000290000F0BAFD01F03AF95D
:1004180080231B069C466044F1E7C0460000E0418B
:10042800F0B557464E464546DE46E0B50C031F007C
:100438004B0081469246050085B0240B5B0DCE0F1C
:10044800002B00D152E1D24A934200D16EE1420F13
:10045800E40014438022120422439046CD4AC5008A
:1004680093469B440023994600933C037B005046E7
:10047800240B5B0DFF0F002B00D11AE1C44A9342F5
:1004880000D15EE1420FE400224380242404144397
:10049800C04AC10094465A466344D31A9B4600207A
:1004A80033007B409A464B460F2B27D8BA4A9B000D
:1004B800D3589F46B246009B022B16D0032B00D17F
:1004C80087E2012B00D0D5E00023002200251B0580
:1004D80013435246D20713432800190005B0F0BC55
:1004E800BB46B246A946A046F0BD00220025A84B4F
:1004F800EDE7BA46A0460D000090DCE7444500D27F
:10050800C4E100D1BFE101235B429C462E00404676
:100518000025E34423020C0E1C431B0C99462304BC
:100528000A021F0C494600920197FFF76BFE020072
:100538007A430B04310C804619438A4207D90123B8
:100548005B429C460919E0448C4200D801E2881AB3
:100558004946FFF757FE019A360442430904360C10
:1005680003000E43B24204D93619013BB44200D805
:10057800E9E1B01A4246009E12041A43330C1F00E8
:10058800110C9046029313043204160C32001B0C13
:100598005A4303967B434E437943170CBC469B1939
:1005A80063449E4203D980267602B44661441E0CF9
:1005B800711816041B04360C9E19884202D312D1F6
:1005C800B54210D243465A1E009B9C4665441F0004
:1005D8009D429B415B421B19C018844200D29EE198
:1005E80000D199E19046AE1BB542AD41401A6D422B
:1005F800401B844200D1D2E14946FFF703FE019A2D
:100608000B044243310C050019438A4200D96CE1BE
:10061800881A4946FFF7F6FD019A36044243090451
:10062800360C03000E43B24200D953E10398B61AC0
:1006380002002D041D43029F2B041B0C5A437B43CD
:100648009C46290C4843130C8444634479439842DC
:1006580003D98020400284466144180C12041B040C
:10066800120C40189B18864200D200E100D1FBE032
:1006780001231D43494B5B44002B00DCAAE06A07B9
:1006880000D03DE1E9084246D20106D54246444B36
:100698001A4080239046DB005B44424A934200DDC7
:1006A80023E742465B05550752020D43120B5B0DCB
:1006B8000DE75146214300D17CE0002C00D1FBE03E
:1006C800200001F083F802000B3A1D239B1A5246C2
:1006D8000100DA40534608398B408C401900144316
:1006E800314B58449B4683440020D9E603002343FA
:1006F800984644D0002C00D1CFE0200001F066F8E5
:10070800010002000B391D235B1A49461000D9402D
:10071800083884400B004D46234398468540234BB8
:100728009B1A9B460023994600939EE602002243AB
:1007380090461DD108229B4602230025914600932E
:1007480093E65146214309D102234A461A43184BDE
:1007580091469C4600240220E344A1E603234A462E
:100768001A43134B91469C4651460320E34497E6AF
:100778000C229B460323A0469146009375E604236A
:10078800994600239B460133002500936DE6C04639
:10079800FF07000001FCFFFFC44B0008FF03000037
:1007A800FFFFFFFEFE070000F30300000DFCFFFF44
:1007B80001F8FFFF4A4601231A439146002401200D
:1007C8006EE6002380229A460025884B12037EE6B7
:1007D80001256D420122D21A382A00DD74E61F2A4B
:1007E80000DCBDE01F214942CB1A4146D9400B002D
:1007F800202A04D041467E4A5A4491400D4329009C
:100808004A1E9141194307231D0000220D400B4247
:1008180000D1D0E00F2200230A40042A00D1C7E00B
:100828000A1D8A42894149425B1811001A0200D404
:10083800BEE001230022002549E680224346120338
:10084800134208D0144206D122431203BA460D00BF
:10085800664B120B3BE68022434612031A431203EF
:10086800B246624B120B32E6002B00D102E7A61902
:100878006A1EA64200D289E0864200D29FE000D1DB
:10088800AFE01500F4E6A94200D93CE64346DE078E
:1008980058086B081E43ED073CE600F097FF01007F
:1008A8000200153120321C2900DC2CE74B460838A1
:1008B80083400025984632E700F088FF03001A00BD
:1008C800153220301C2A00DCFFE65446083B002184
:1008D8009C4005E73619013BB44200D9A6E6B2426E
:1008E80000D8A3E6831E3619A0E60919013D8C42FB
:1008F80000D98DE68A4200D88AE6851E091987E65E
:100908000F222A40042A00D1BCE6291DA942AD4184
:100918006D42C908A844B6E6AF4200D962E68142F2
:1009280004D800D05EE6AE4200D85BE602235B4204
:100938009C46009BE0449C4665449D429B415B422B
:100948001B19C0184FE6B24200D812E6831E3619AA
:100958000FE68A4200D8FAE5831E98460919F6E59B
:10096800244B28005B4441469D409940D0406B1E73
:100978009D41434601432943D3404A0700D155E7E7
:100988000F220A40042A00D04AE74FE715008642A2
:1009980000D06DE6009A9A4200D069E66AE6164BE6
:1009A8005B44002B00DC13E701250021A8446AE61C
:1009B8005D075B021A0BC90800230D4387E5009900
:1009C800023D4A008A42BF417F423F19F619009210
:1009D800DDE78022434612031A431203034B120B2E
:1009E80075E500999942EAD31500D3E7FF0700009F
:1009F8003E0400001E040000FF030000F0B5454659
:100A0800DE4657464E46E0B51F000B031B0B9B46C0
:100A18004D00CB0F04009146984687B06D0D00D16C
:100A2800CDE1CE4B9D4200D1E9E15A46430FD200B9
:100A38001343802212041A43C3009A46C84B9346B4
:100A48009C4600230026654400933C037B004846EF
:100A5800240B5B0DFF0F002B00D189E1BF4A9342A5
:100A680019D0420FE4002243802424041443BC4AD2
:100A780000219446424663445B190193019B7A40E6
:100A88000133C000D2B202930A2E1CDD3A000B2EAD
:100A98005ED0474656E04946B04B2143EB180193D8
:100AA80000292AD18020022200012B008446164307
:100AB800424663447A40D2B202930A2E00DD31E204
:100AC800002000240221022E26DC013E012E52D8ED
:100AD80002294CD0012900D018E100230024002568
:100AE8001B052343D20713432800190007B0F0BCA5
:100AF800BB46B246A946A046F0BD802103220901A3
:100B08002B008C461643424663447A40D2B2029385
:100B18000A2E00DD28E203210125B540AC46A626B1
:100B28006346F600354033420BD19026B600334277
:100B380018D1B93EFF3E1E421DD0A3468246009101
:100B480000E0170000993A00022910D05C46504690
:100B58000329BFD180231B031C43240305007F4BBB
:100B6800240BBDE7802400227C4B2403B8E7002433
:100B780000257A4BB4E753461E04360C1F0C33008D
:100B8800010C0004000C4343984603007B4399463C
:100B980033004B439C4643460D001B0C9A467D434D
:100BA800CC44D4440095E14504D980235B0299469E
:100BB8004D44009563461B0C1D0063461B049C4670
:100BC80043461B041B0C9846634643440393230C7B
:100BD800984633002404240C63439C4623007B433B
:100BE800994643465E435F434E446346B2461E0CF5
:100BF8005644B14503D980235B0299464F44330CD0
:100C080099463B004B4405936346AC461F043F0C92
:100C18003604F619B444634604935B461B0C9C46A1
:100C28005B461F043F0C3B004343994663464343DE
:100C38009A464B4660461B0C9B46484379435144B1
:100C480059448A4503D980235B029A4650440B0CC9
:100C58009A464B461B041B0C99463B006343090408
:100C680045464944994663465C436B439C464B461C
:100C78001B0C98466F433F1947445044BC4203D964
:100C880080235B029846C444049B009D98464544D3
:100C9800B542B641734298464B461E04059B3C0438
:100CA8009946360CA4194C44A14683466E18C14493
:100CB8008E428941CB445D4649426D189C42A4410D
:100CC800C1459B41834580418D4289415B426442D5
:100CD8001C434042039B4942014370023F0C1843A6
:100CE800E419471EB84164186444F60D61023043A4
:100CF800EC0D6E020C433043C90100D4F1E0012130
:100D0800430801400B43E007184364081549029B58
:100D18008C466344002B00DC97E0410709D00F2183
:100D28000140042905D0011D814280414042241818
:100D38000800E10106D58021C9008C460A4B1C40F9
:100D4800029B634409498B4200DD10E76107C5082F
:100D580064025B050D43240B5B0DC1E6FF07000031
:100D680001FCFFFFFF030000FFFFFFFEFE0700007E
:100D78004B46234359D0002C00D1A3E0200000F0BB
:100D880025FD010003000B391D22521A494618009F
:100D9800D1404A4608388240844010000C43744AC7
:100DA800EB1A9446424663440193019B7A4001330F
:100DB8000021D2B202930A2E00DD67E683E65B4685
:100DC80003439A462AD05B46002B6DD0584600F064
:100DD800FDFC010003000B391D22521A21001800E6
:100DE8005D46D140083885400A0084402A4393462E
:100DF800A2465F4D0026ED1A0023009325E65B46C8
:100E080003439A4605D100239B46023308260093E4
:100E18001BE6032382460C26009316E600239B4616
:100E280001330426002500930FE64246013301955D
:100E38001E43019B7A400133002400200121D2B2D5
:100E480002930A2E00DD21E63DE60121C91A382960
:100E580000DD42E61F2947DD1F2625007642F31AEA
:100E6800DD402B00202905D04249029D8C4665446F
:100E7800AC402043411E8841184307231D0000242D
:100E8800054003424AD00F2300240340042B42D0DC
:100E9800031D8342804140422418180023023AD59A
:100EA8000123002400251BE600F090FC010003004C
:100EB800153120331C298FDD0838002284409246E2
:100EC800A34696E700F082FC0100030015312033A9
:100ED8001C2900DC58E702004C46083A00209440E0
:100EE8005DE7019B029311E7234B26009C46030014
:100EF800029DCB406544AE401E430300AB40581EE4
:100F0800834130001843CC404307C7D00F23034028
:100F1800042BBDD1C2E765076402240BC008002377
:100F28000543DDE5002502230F2E0CD180245B4606
:100F3800240323420ED021420CD10C4324033A004F
:100F48000E4B240BCCE50B2E00D0A2E58B46AA460F
:100F58000093F7E580245B4624031C4324034246A0
:100F68005546064B240BBBE54D4621000323DBE722
:100F78000DFCFFFF3E0400001E040000FF070000F8
:100F8800F0B557464E464546DE46E0B50D0004002E
:100F9800190010002B035B0A620F1A43E3000C03CD
:100FA800640A470F2743D04C6E00914683B04A002D
:100FB800C0009846A246760DED0F520DC90F01905C
:100FC800A24200D1B9E0012461408B468D4200D194
:100FD8008DE0B41AA446002C00DCB7E0002A00D14A
:100FE800CBE0C14A964200D186E180221204174321
:100FF8006246382A00DDA4E11F2A00DD1DE26146B1
:1010080020223C00521A010090409440421E904118
:101018006246A0466446D7404A46E1404446D21B51
:1010280091460C4304431C1BA34292414B46524237
:101038009B1A9A4653461B0200D42BE153465A0288
:10104800530A9A465346002B00D166E1504600F0F9
:10105800BDFB0300083B20222000D21A5146D04095
:10106800994002009C400A439E4200DD64E19B1BBC
:10107800591C1F2900DDFEE02023100026005B1A02
:101088009C409840CE40CA40631E9C4130439246E3
:1010980000260443630709D00F232340042B05D0FF
:1010A800231DA342A4416442A2441C0053461B02D0
:1010B80000D4F2E08C4B01369E4200D10FE153463A
:1010C8008A49E4080B4019005B07234372054C0268
:1010D800240B520D12052243ED072A431800110074
:1010E80003B0F0BCBB46B246A946A046F0BDB41A50
:1010F800A446002C59DD002A00D1B0E0564500D1A5
:10110800FAE08022120417436246382A00DDD4E050
:101118001F2A00DCC0E13900203AD1406246202A6B
:1011280006D064464022121B3C00944004430194BC
:10113800019C621E94410C43C3E03C0004432BD045
:101148008B468D422ED06A4CA446B4446446002C8B
:101158005FD0941BA446002E00D020E14C461C43CF
:1011680000D1C7E161464C1E012900D123E25E4D42
:10117800AC4500D1D8E1A4461AE13A00024300D1B7
:10118800E4E02200013A012C00D1C3E156498C4227
:1011980000D1B1E094462BE7012461408B468D4293
:1011A80000D016E752498C46B4446446002C00D15E
:1011B800D3E0911B8C46002E00D15EE14A498A4259
:1011C80000D1BEE180214C4609040C43A14661468A
:1011D800382900DDBAE11F2900DD27E22024641A3E
:1011E8004946A1401E0088466146A340CE4041467C
:1011F8005C1EA341314319430C0063464946D9405C
:101208007F18241884429B415B429A461600BA44D0
:101218005DE0384C721C224200D0DFE04A461A4397
:10122800002E00D05CE1002A00D1CFE13A00024351
:1012380000D17FE11C1A4A46A3428941D21B494288
:10124800521A9246120200D40AE2C41AA0428041FD
:101258004B464042FF1A3B1A9A465D461AE73A0047
:10126800024373D02200013A012C00D1CBE054454F
:1012780042D0944648E710001F3BD840202903D0AD
:1012880040235B1A9A401443631E9C4100230026A6
:101298009A460443630700D0FEE65246E308520725
:1012A80013435246B446D2080F498C452AD012033C
:1012B800140B62465205520D0CE73C000443621EB3
:1012C8009441E4189C42924152424A449246534601
:1012D8001B02DFD5044B01369E4200D0A0E032004D
:1012E80000240023F6E6C046FF070000FFFF7FFF4B
:1012F80001F8FFFFFE070000DB084A4652071343C8
:101308004A46D2081900114300D1B5E180242403CC
:1013180014432403D54A240BDCE6200000F056FAD7
:10132800030018331F2B00DC95E6220008388240A2
:1013380000249E4200DC9AE6F61ACD4B1A409246EB
:10134800A8E63C000443621E94416CE64A46DB086A
:10135800520713434A46D208A6E7C64C721C2242DB
:1013680000D0ACE04A461A43002E00D005E1002A1E
:1013780000D156E13A00024300D1DBE01C189C4240
:101388009B414F44BA465B429A4453461B0200D4E1
:1013980080E75246B64B01261A4092467AE7B34C8C
:1013A800A24200D1C0E080244D4624042543A9462A
:1013B8006446382C53DC61461F2C00DDCDE0202527
:1013C8001E002D1B4C46AB40AC40CE405D1EAB41D1
:1013D800344323434C46CC403F1B45E04A461C1A45
:1013E800D11BA3429241524292460A005146521AD8
:1013F8009246120200D583E05346234300D021E6EB
:101408000022002553E71C189C429B414F44BA46D2
:101418005B429A44534601261B0200D43AE702264F
:101428005246934B01211A401300214062080A4397
:10143800DC075B089A4614432CE63900203AD14071
:101448006246202A06D064464022121B3C00944083
:1014580004430194019C621E94410C43E3E5494610
:1014680019430B005C1EA341C41AA0429B415B4276
:10147800FB1A9A465D461600DCE54946194300D139
:10148800AEE0614664460139012C00D1E0E0774CBA
:10149800A44556D08C469AE6614620223C00521A52
:1014A800944001009040A0466446421E9041624626
:1014B800E1404446D7400C430443B94401E76B4933
:1014C8008A4200D10CE7181898429B414F445B426E
:1014D800FB18DC0740085B089A4616000443D9E667
:1014E800002A00D081E03B0003431DD18022002563
:1014F80012030BE7C0087B075D460343FA08D3E6EF
:10150800C41AA04280414B464042FF1A3B1A9A46F1
:101518005D4697E51C1A4A46A3429B41D71B5B428E
:10152800FB1A9A46012685E5C0087B075D460343FA
:10153800FA08E7E64A46DB08520713434A46D20848
:10154800B5E6C0087B070343FA08DBE649461943BA
:101558000B00591E8B411C0053E64D46203CE540CC
:10156800202905D04024641A4946A1400B439846D7
:1015780043465C1EA3412B4376E7002AE1D03A009C
:10158800DB08024300D1B8E64A46520780241343D9
:101598004A462403D208224207D0FE08264204D134
:1015A8005D463200C3087F073B43590FDB004907FC
:1015B800DB080B43A6E6C41AA04280414B464042D2
:1015C800FF1A3B1A9A465D46012633E53B00034362
:1015D80000D115E7C0087B075D460343FA0866E6B5
:1015E800C0087B070343FA085EE63A00DB080243BB
:1015F80000D182E64A465207802413434A46240310
:10160800D208224207D0FE08264204D15D463200A5
:10161800C3087F073B43590FDB00DB0849070B432F
:1016280070E6C0087B070343FA0840E64C462039B9
:10163800CC406146202906D066464021891B4E468B
:101648008E40334398464346591E8B411C43D8E588
:101658001C18844280414F44BA4640428244D9E62D
:101668005346234300D1CBE614E6C046FF070000EB
:10167800FFFF7FFFFE0700000023014A1C0029E549
:10168800FF0700000A0030B5134C5300090305009A
:10169800090B00205B0DD20FA34204DD0F488342E3
:1016A80002DD0F4BD01830BD8020400301430D48A8
:1016B800C01A1F2808DD0C48C31AD9400B0058422D
:1016C800002AF0D11800EEE7084CC540A446634450
:1016D80099400B002B43F2E7FE0300001D040000B5
:1016E800FFFFFF7F3304000013040000EDFBFFFF42
:1016F80070B5002816D0C317C5185D40C40F280060
:1017080000F064F8114B1B1A0A2816DC02002E00A0
:10171800153296400B22121AD5405B052D032D0B6E
:101728005B0D03E000240023002500261B052B4346
:10173800E40723433000190070BD0B3885405B0572
:101748002D0300262D0B5B0DF0E7C0461E0400009C
:101758008446100062468C461900634600E0C04685
:101768001FB500F0F9F8002801D40021C8421FBDB8
:1017780010B500F049F84042013010BD10B500F036
:10178800EBF8002801DB002010BD012010BDC04689
:1017980010B500F0E1F8002801DD002010BD01209F
:1017A80010BDC04610B500F071F8002801DC00201B
:1017B80010BD012010BDC04610B500F067F8002824
:1017C80001DA002010BD012010BDC0461C210123F4
:1017D8001B04984201D3000C10391B0A984201D30C
:1017E800000A08391B09984201D30009043902A2EA
:1017F800105C40187047C046040302020101010151
:101808000000000000000000F0B54E464546DE46E8
:1018180057469046E0B517001A03120B0500844698
:1018280019480E034C0091465A00DB0F9B46360BB5
:10183800640DC90F520D844219D0824210D0012084
:1018480094420ED14E450CD10120C44509D15945C9
:1018580017D0002C05D130002843431E984100E0E2
:101868000120F0BCBB46B246A946A046F0BD3300F5
:1018780001202B43F5D1A242F3D14B463B43F0D193
:10188800E2E70020EDE7C046FF070000F0B5474655
:10189800CE460400180016001B031B0B2D4D4A00F2
:1018A800994680B543000F03A446B0463F0B520D3E
:1018B800C90F5B0DC00FAA4221D0AB4213D0002A3A
:1018C80022D13C43002B02D14D462E4322D0002C7E
:1018D80010D0814222D00220013908400138C0BC12
:1018E800B946B046F0BD4D462E4329D1002AF0D165
:1018F8003C43EED10028F2D101204042EFE73D0001
:1019080025431DD19342EED0002BE2D14C4626430D
:10191800DFD1E0E70020002CE1D0DCE79A420ADCC6
:10192800E8DB4F45D7D80ED000204F45D7D2002945
:10193800E2D00800D3E74342584140000138CEE7DF
:1019480002204042CBE7C445C5D80020C445C6D2D2
:10195800EDE7C046FF070000F0B54746CE46040055
:10196800180016001B031B0B2C4D4A00994680B526
:1019780043000F03A446B0463F0B520DC90F5B0D41
:10198800C00FAA420DD0AB4210D0002A27D13C4349
:10199800002B11D14D462E430ED10020002C15D01E
:1019A8000EE03D00254310D1934218D14D462E43F9
:1019B8000BD1002A02D13C43002C0BD0814214D019
:1019C800022001390840013800E00220C0BCB946B5
:1019D800B046F0BD0028F9D101204042F6E7002BBF
:1019E800ECD14C462643E9D1EAE79A4204DD43426A
:1019F800584140000138E9E79A42EBDB4F45DFD810
:101A080006D000204F45E1D20029E5D00800DDE7E7
:101A1800C445D5D80020C445D8D2F5E7FF07000053
:101A280080B584B004AF264B00221A70244B3922AB
:101A38005A70234B9F229A70214A224801235B4205
:101A480000930323802100F023FF1F4B1B681F49CD
:101A58001800FEF7DBFB0300DAB21D4B1A701C4BB3
:101A68001B7814225343DAB21A4B1A70184B1B789E
:101A78001A00194B1B7853431800FFF739FE020070
:101A88000B0016481649FEF7CBFC02000B001000AD
:101A98001900FFF7F7FD0200124B1A60114B1B6883
:101AA8001A00084801235B42029302230193009223
:101AB80002230522402101F0FBF8C046BD4680BD47
:101AC800A0000020380000200C000020FF7F00004C
:101AD800A3000020A4000020A5000020F168E388EE
:101AE800B5F8A43FA800002080B582B002AF464AEE
:101AF800464801235B4200930123802100F0C8FE81
:101B0800434A424801235B4200930223802100F0AC
:101B1800C7FF3F4B1B881800FFF7EAFD3D4A3E4BC5
:101B2800FEF76CFF02000B0010001900FEF75AFCCC
:101B380003009AB2394B1A80394A344801235B4270
:101B480000930123802100F0A3FE364A2F48012389
:101B58005B4200930223802100F0A2FF314B1B88D7
:101B6800DB089BB29B009AB22F4B1A802E4B1B8826
:101B78001800FFF7BDFD2D4A2D4BFEF73FFF020071
:101B88000B0010001900FEF72DFC03009AB2264B3B
:101B98001A80284A1D4801235B42009301238021B3
:101BA80000F076FE244A194801235B420093022381
:101BB800802100F075FF214B1B881F4A1288534370
:101BC8009AB21F4B1A801F4A104801235B420093A8
:101BD8000123802100F05CFE1B4A0C4801235B4274
:101BE80000930223802100F05BFF134B1A88174BE8
:101BF8001B8819001000FEF77FFA03009AB2144BF5
:101C08001A80C046BD4680BD030000203800002071
:101C1800AC0000207B14AE47E17A843FAE00002080
:101C280004000020B0000020B2000020FCA9F1D27E
:101C38004D62503F05000020B4000020BC00002089
:101C4800B600002006000020B80000200800002090
:101C5800BA00002080B582B002AF00F027FA00F089
:101C68007BF800F001F900F0BFF8FFF7D9FEFFF7A5
:101C78003BFFFFF7D5FEFFF737FF2D4A2D4801231D
:101C88005B4200930123522100F002FE2A4A2948B0
:101C980001235B4200930223522100F001FF274AEF
:101CA800244801235B4200930123822100F0F0FDC8
:101CB800234A204801235B4200930223822100F03B
:101CC800EFFE204A1B4801235B4200930123802139
:101CD80000F0DEFD1C4A174801235B4200930223F3
:101CE800802100F0DDFE194A124801235B4200936F
:101CF8000123882100F0CCFD154A0E4801235B42E0
:101D080000930223882100F0CBFE104A09480123E2
:101D18005B42009301238A2100F0BAFD0D4A054871
:101D280001235B42009302238A2100F0B9FEA0E759
:101D380002000020380000208C0000200000002055
:101D48009000002001000020940000209E00002048
:101D5800980000209C00002090B593B000AF142498
:101D68003B19180034231A00002102F0EFFE3B1D36
:101D7800180010231A00002102F0E8FE80239B00BF
:101D8800180002F009FA3B1902221A603B19802256
:101D98005200DA603B1900221A613B1940225A614D
:101DA8003B190022DA613B19180002F035FA031ECC
:101DB80001D000F09DF83B1D07221A603B1D002250
:101DC8005A603B1D00229A603B1D0022DA603B1DD1
:101DD8000021180002F030FD031E01D000F088F841
:101DE800C046BD4613B090BD80B500AF1B4B1C4A22
:101DF8001A601A4B1B4A5A60184B00229A60174BFC
:101E08000122DA60154B00221A61144B00225A6134
:101E1800124B00229A61114B0022DA610F4B00220B
:101E28001A620E4B180000F09DFC031E01D000F052
:101E38005FF80A4B0021180002F016F9031E01D0C2
:101E480000F056F8054B0021180002F059F9031E5E
:101E580001D000F04DF8C046BD4680BD38000020D6
:101E6800005800405B3D300090B589B000AF0C24AD
:101E78003B19180014231A00002102F067FE1A4BC0
:101E88005A6B194B02210A435A63174B5B6B0222A8
:101E98001340BB60BB68144B5A6B134B01210A43B8
:101EA8005A63114B5B6B012213407B607B680F4BBD
:101EB80000220321180000F037FC21007B180322C0
:101EC8001A607B1801225A607B1800229A607B18DE
:101ED8000022DA607B18054A1900100000F0C0FAE9
:101EE800C046BD4609B090BD001002400004005035
:101EF80080B500AF72B6C046FEE7000080B582B07C
:101F080000AF0F4B1A6C0E4B01210A431A640C4B9D
:101F18001B6C012213407B607B68094BDA6B084B12
:101F2800802149050A43DA63054BDA6B80235B0598
:101F380013403B603B68C046BD4602B080BDC0460A
:101F48000010024090B58BB000AF786014243B19A4
:101F5800180014231A00002102F0F8FD7B681B68A2
:101F6800204A934239D1204B5A6B1F4B01210A4317
:101F78005A631D4B5B6B012213403B613B693B1964
:101F8800C02252011A6021007B1812225A607B1865
:101F980000229A607B180022DA607B1806221A61F8
:101FA8007A18A023DB051100180000F059FA0E4B2F
:101FB800DA6B0D4B8021C9030A43DA630A4BDA6BEB
:101FC8008023DB031340FB60FB68002200211820FC
:101FD80000F09EF9182000F0B0F9C046BD460BB0DD
:101FE80090BDC046005800400010024080B500AFC8
:101FF800FEE780B500AFFEE780B500AFC046BD463E
:1020080080BD80B500AFC046BD4680BD80B500AF7D
:1020180000F0B6F8C046BD4680BD000080B500AFF0
:10202800094B1B689A69E023DB00134004D0064B78
:10203800180000F085FF03E0034B180000F066FF6E
:10204800C046BD4680BDC0463800002080B500AF00
:10205800C046BD4680BD00000D488546FFF7F6FF27
:102068000C480D490D4A002302E0D458C4500433EB
:10207800C4188C42F9D30A4A0A4C002301E01360C1
:102088000432A242FBD302F069FDFFF7E3FDFEE74D
:1020980000200020000000201C0000204C4C0008FC
:1020A8001C000020C4000020FEE7000080B582B0BC
:1020B80000AFFB1D00221A700B4B1A680A4B8021D7
:1020C80049000A431A60032000F010F8031E03D0E9
:1020D800FB1D01221A7001E0FFF710FFFB1D1B78A2
:1020E8001800BD4602B080BD0020024090B585B002
:1020F80000AF78600F23FB1800221A701D4B1B7865
:10210800002B2BD01C4B1C681A4B1B781900FA2388
:102118009800FDF7F1FF030019002000FDF7ECFF20
:102128000300180000F019F9031E12D17B68032B75
:102138000AD8796801235B420022180000F0E8F809
:102148000E4B7A681A600DE00F23FB1801221A70F3
:1021580008E00F23FB1801221A7003E00F23FB1875
:1021680001221A700F23FB181B781800BD4605B012
:1021780090BDC04618000020100000201400002068
:1021880080B500AF054B1B781A00054B1B68D218A9
:10219800034B1A60C046BD4680BDC04618000020EB
:1021A800C000002080B500AF024B1B681800BD4678
:1021B80080BDC046C000002080B582B000AF0200DC
:1021C800FB1D1A70FB1D1B787F2B09D8FB1D1B7884
:1021D8001A001F231A40044B012191400A001A607B
:1021E800C046BD4602B080BD00E100E090B583B0B6
:1021F80000AF02003960FB1D1A70FB1D1B787F2B96
:1022080028D82F4AFB1D1B785BB29B08C0339B0064
:102218009B58FA1D1278110003220A40D200FF21B0
:1022280091400A00D2431A4011003B689B01FF22EB
:102238001A40FB1D1B78180003230340DB009A405B
:102248001F48FB1D1B785BB29B080A43C0339B00E9
:102258001A5031E01B4AFB1D1B7819000F230B4055
:10226800083B9B0806339B00D31804331B68FA1DF0
:102278001278110003220A40D200FF2191400A007F
:10228800D2431A4011003B689B01FF221A40FB1DF4
:102298001B78180003230340DB009A400948FB1D04
:1022A8001B781C000F232340083B9B080A43063376
:1022B8009B00C31804331A60C046BD4603B090BDE6
:1022C80000E100E000ED00E080B582B000AF78608A
:1022D8007B685A1E80235B049A4201D3012310E0D5
:1022E8000A4B7A68013A5A6001235B4203211800BD
:1022F800FFF77CFF054B00229A60044B07221A6007
:1023080000231800BD4602B080BDC04610E000E0C2
:1023180080B584B000AFB9607A600F217B18021CC9
:102328001A70BA687B181B785BB211001800FFF7A7
:102338005DFFC046BD4604B080BD80B582B000AF29
:102348000200FB1D1A70FB1D1B785BB21800FFF71B
:1023580033FFC046BD4602B080BD80B582B000AF35
:1023680078607B681800FFF7AFFF03001800BD46D0
:1023780002B080BD80B584B000AF78600F217B18B3
:1023880000221A707B6825229B5CDBB2022B06D0E8
:102398007B680422DA637B1801221A7049E07B68A3
:1023A8001B681A687B681B680E218A431A607B6861
:1023B8001B681A687B681B6801218A431A607B685E
:1023C8005B6C1A687B685B6C1D490A401A601D4B80
:1023D80059687B681B6C1C22134001229A40194BD8
:1023E8000A435A607B689B6C7A68D26C5A607B6837
:1023F8001B6D002B0CD07B681B6D1A687B681B6DEE
:102408000F490A401A607B685B6D7A68926D5A6062
:102418007B682522012199547B6824220021995444
:102428007B689B6B002B04D07B689B6B7A681000E1
:1024380098470F23FB181B781800BD4604B080BDD1
:10244800FFFEFFFF0000024080B582B000AF786059
:102458007B6825229B5CDBB21800BD4602B080BDBC
:1024680080B586B000AF7860396000237B6147E1B2
:102478003B681B6801217A6991400A001340FB60A0
:10248800FB68002B00D138E13B685B6803221340EE
:10249800012B05D03B685B6803221340022B30D127
:1024A8007B689B683B617B695B0003229A40130051
:1024B800DA433B6913403B613B68DA687B695B0040
:1024C8009A4013003A6913433B617B683A699A6002
:1024D8007B685B683B6101227B699A401300DA43A1
:1024E8003B6913403B613B685B681B0901221A404A
:1024F8007B699A4013003A6913433B617B683A69E8
:102508005A603B685B6803221340032B17D07B6833
:10251800DB683B617B695B0003229A401300DA4366
:102528003B6913403B613B689A687B695B009A4052
:1025380013003A6913433B617B683A69DA603B6888
:102548005B6803221340022B23D17B69DA087B687E
:1025580008329200D3583B617B69072213409B00E5
:102568000F229A401300DA433B6913403B613B68F2
:102578001A697B6907210B409B009A4013003A694E
:1025880013433B617B69DA087B680832920039693A
:10259800D1507B681B683B617B695B0003229A40D2
:1025A8001300DA433B6913403B613B685B680322D5
:1025B8001A407B695B009A4013003A6913433B61F8
:1025C8007B683A691A603B685A68C0239B021340CB
:1025D80000D192E0504A7B699B0818339B009B58B6
:1025E8003B617B6903221340DB000F229A401300F2
:1025F800DA433B6913403B617A68A023DB059A42C2
:1026080013D07B68454A93420DD07B68444A934275
:1026180007D07B68434A934201D1032306E0052390
:1026280004E0022302E0012300E000237A69032189
:102638000A40D20093403A6913433B6136497B69AB
:102648009B0818339B003A695A50334B1B683B610F
:10265800FB68DA433B6913403B613B685A68802357
:102668005B03134003D03A69FB6813433B612A4B71
:102678003A691A60284B5B683B61FB68DA433B693F
:1026880013403B613B685A6880239B03134003D087
:102698003A69FB6813433B611F4B3A695A601E4A0B
:1026A8008423D3583B61FB68DA433B6913403B61A1
:1026B8003B685A6880239B02134003D03A69FB6841
:1026C80013433B61144984223B698B50124A80238F
:1026D800D3583B61FB68DA433B6913403B613B6875
:1026E8005A6880235B02134003D03A69FB6813439E
:1026F8003B61094980223B698B507B6901337B61CF
:102708003B681A687B69DA40131E00D0B0E6C04601
:10271800C046BD4606B080BD001802400004005007
:1027280000080050000C005080B582B000AF7860FF
:1027380008001100BB1C021C1A807B1C0A1C1A70A2
:102748007B1C1B78002B04D0BB1C1A887B689A6101
:1027580003E0BB1C1A887B689A62C046BD4602B07B
:1027680080BD000080B582B000AF78607B68002B28
:1027780001D1012382E07B6841229B5CDBB2002B04
:1027880007D17B684022002199547B681800FFF725
:10279800D9FB7B684122242199547B681B681A68FD
:1027A8007B681B6801218A431A607B685A687B68CA
:1027B8001B6834490A401A617B681B689A687B6801
:1027C8001B6831490A409A607B68DB68012B08D195
:1027D8007B689A687B681B68802109020A439A60B3
:1027E80007E07B689A687B681B68842109020A43B2
:1027F8009A607B68DB68022B04D17B681B688022A7
:1028080012015A607B681B685A687B681B681F49FD
:102818000A435A607B681B68DA687B681B681A4938
:102828000A40DA607B681A697B685B691A431100A1
:102838007B689B691A027B681B680A43DA607B68BD
:10284800D9697B681A6A7B681B680A431A607B68C7
:102858001B681A687B681B6801210A431A607B6839
:1028680000225A647B684122202199547B68002207
:102878001A637B6842220021995400231800BD4640
:1028880002B080BDFFFFFFF0FF7FFFFF0080000266
:1028980090B589B002AFF86008007A6019000A2381
:1028A800FB18021C1A800823FB180A1C1A80FB68F4
:1028B80041229B5CDBB2202B00D0E7E0FB68402282
:1028C8009B5C012B01D10223E1E0FB68402201213E
:1028D8009954FFF767FC03007B6180231902F868AD
:1028E8007B6900931923012201F0ECF8031E01D043
:1028F8000123CCE0FB68412221219954FB68422244
:1029080010219954FB6800225A64FB687A685A625D
:10291800FB680822BA1812885A85FB6800225A6395
:10292800FB685B8D9BB2FF2B11D9FB68FF221A85D0
:10293800FB681B8DDAB280235C040A23FB18198814
:10294800F868554B0093230001F0F0FA75E0FB6836
:102958005B8D9AB2FB681A85FB681B8DDAB28023FF
:102968009C040A23FB181988F8684B4B0093230032
:1029780001F0DCFA61E07A69B96AFB68180001F0D5
:10298800E0F8031E01D0012381E0FB685B6A1A7836
:10299800FB681B689A62FB685B6A5A1CFB685A6290
:1029A800FB685B8D9BB2013B9AB2FB685A85FB685A
:1029B8001B8D013B9AB2FB681A85FB685B8D9BB245
:1029C800002B3AD0FB681B8D002B36D1BA6AF86809
:1029D8007B69009313000022802101F073F8031E25
:1029E80001D0012353E0FB685B8D9BB2FF2B11D90B
:1029F800FB68FF221A85FB681B8DDAB280235C0412
:102A08000A23FB181988F86800230093230001F0B3
:102A18008DFA12E0FB685B8D9AB2FB681A85FB6839
:102A28001B8DDAB280239C040A23FB181988F868E6
:102A380000230093230001F079FAFB685B8D9BB2B9
:102A4800002B98D17A69B96AFB68180001F0B8F8C8
:102A5800031E01D001231AE0FB681B682022DA61FB
:102A6800FB681B685A68FB681B680C490A405A6077
:102A7800FB68412220219954FB6842220021995485
:102A8800FB68402200219954002300E0022318002B
:102A9800BD4607B090BDC0460020008000E800FE9B
:102AA80090B589B002AFF86008007A6019000A236F
:102AB800FB18021C1A800823FB180A1C1A80FB68E2
:102AC80041229B5CDBB2202B00D0E8E0FB6840226F
:102AD8009B5C012B01D10223E2E0FB68402201212B
:102AE8009954FFF75FFB03007B6180231902F868A4
:102AF8007B6900931923012200F0E4FF031E01D033
:102B08000123CDE0FB68412222219954FB6842222F
:102B180010219954FB6800225A64FB687A685A624B
:102B2800FB680822BA1812885A85FB6800225A6383
:102B3800FB685B8D9BB2FF2B11D9FB68FF221A85BE
:102B4800FB681B8DDAB280235C040A23FB18198802
:102B5800F868554B0093230001F0E8F976E0FB682C
:102B68005B8D9AB2FB681A85FB681B8DDAB28023ED
:102B78009C040A23FB181988F8684B4B0093230020
:102B880001F0D4F962E07A69B96AFB68180001F0CB
:102B980053F8031E01D0012382E0FB681B685A6AC0
:102BA800FB685B6AD2B21A70FB685B6A5A1CFB68E6
:102BB8005A62FB681B8D013B9AB2FB681A85FB6859
:102BC8005B8D9BB2013B9AB2FB685A85FB685B8DB3
:102BD8009BB2002B3AD0FB681B8D002B36D1BA6A0A
:102BE800F8687B69009313000022802100F06AFFD7
:102BF800031E01D0012353E0FB685B8D9BB2FF2BC2
:102C080011D9FB68FF221A85FB681B8DDAB2802375
:102C18005C040A23FB181988F86800230093230032
:102C280001F084F912E0FB685B8D9AB2FB681A85A3
:102C3800FB681B8DDAB280239C040A23FB181988D1
:102C4800F86800230093230001F070F9FB685B8D9E
:102C58009BB2002B97D17A69B96AFB68180000F01B
:102C6800AFFF031E01D001231AE0FB681B68202276
:102C7800DA61FB681B685A68FB681B680B490A40E5
:102C88005A60FB68412220219954FB6842220021A6
:102C98009954FB68402200219954002300E0022344
:102CA8001800BD4607B090BD0024008000E800FE73
:102CB80090B589B002AFF8600C00100019000A2323
:102CC800FB18221C1A800823FB18021C1A80BB1D43
:102CD8000A1C1A80FB6841229B5CDBB2202B00D0C7
:102CE8000CE1BB6A002B04D02C23FB181B88002B9B
:102CF80005D1FB68802292005A640123FFE0FB683B
:102D080040229B5C012B01D10223F8E0FB684022A2
:102D180001219954FFF746FA03007B6180231902C9
:102D2800F8687B6900931923012200F0CBFE031E8B
:102D380001D00123E3E0FB68412221219954FB687B
:102D4800422240219954FB6800225A64FB68BA6AFF
:102D58005A62FB682C22BA1812885A85FB6800222E
:102D68005A63BB1D1C880823FB181A880A23FB1802
:102D78001988F8687B6901933B6B0093230000F086
:102D880071FA031E05D0FB684022002199540123E3
:102D9800B5E0FB685B8D9BB2FF2B11D9FB68FF2266
:102DA8001A85FB681B8DDAB280235C040A23FB18A2
:102DB8001988F86800230093230001F0B7F812E09F
:102DC800FB685B8D9AB2FB681A85FB681B8DDAB2CB
:102DD80080239C040A23FB181988F86800230093B1
:102DE800230001F0A3F87A69396BFB68180000F03A
:102DF800A8FE031E01D0012381E0FB685B6A1A78F4
:102E0800FB681B689A62FB685B6A5A1CFB685A621B
:102E1800FB685B8D9BB2013B9AB2FB685A85FB68E5
:102E28001B8D013B9AB2FB681A85FB685B8D9BB2D0
:102E3800002B3AD0FB681B8D002B36D13A6BF86813
:102E48007B69009313000022802100F03BFE031EE3
:102E580001D0012353E0FB685B8D9BB2FF2B11D996
:102E6800FB68FF221A85FB681B8DDAB280235C049D
:102E78000A23FB181988F86800230093230001F03F
:102E880055F812E0FB685B8D9AB2FB681A85FB68FF
:102E98001B8DDAB280239C040A23FB181988F86872
:102EA80000230093230001F041F8FB685B8D9BB27F
:102EB800002B98D17A69396BFB68180000F080FE06
:102EC800031E01D001231AE0FB681B682022DA6187
:102ED800FB681B685A68FB681B680B490A405A6004
:102EE800FB68412220219954FB6842220021995411
:102EF800FB68402200219954002300E002231800B7
:102F0800BD4607B090BDC04600E800FE80B584B05D
:102F180000AF78607B681B689B69FB607B681B68F7
:102F28001B68BB607B685B6B002B05D07B685B6BA9
:102F3800BA68F96878689847C046BD4604B080BD4D
:102F480080B586B000AF78607B681B689B697B6141
:102F58007B681B681B683B617A6980235B001340B0
:102F68000ED03B69802213400AD07B685B6C01223B
:102F78001A437B685A647B681B6880225200DA61B6
:102F88007A698023DB0013400ED03B69802213400E
:102F98000AD07B685B6C08221A437B685A647B689A
:102FA8001B688022D200DA617A6980239B00134073
:102FB8000ED03B69802213400AD07B685B6C0222EA
:102FC8001A437B685A647B681B6880229200DA6126
:102FD8007B685B6CFB60FB680B22134005D0FA68CA
:102FE8007B681100180000F021FCC046BD4606B001
:102FF80080BD80B582B000AF7860C046BD4602B0E3
:1030080080BD80B582B000AF7860C046BD4602B0D2
:1030180080BD80B582B000AF786008001100FB1C4D
:10302800021C1A703B000A1C1A80C046BD4602B03A
:1030380080BD80B582B000AF7860C046BD4602B0A2
:1030480080BD80B582B000AF7860C046BD4602B092
:1030580080BD80B582B000AF7860C046BD4602B082
:1030680080BD000080B586B000AFF860B9607A60B6
:10307800FB68DB6A7B61BB683B61FB6840229B5C49
:10308800012B01D10223E6E0FB684022012199547B
:103098003B692022134009D07B682022134005D0C9
:1030A8003A69FB681100180000F048FA3B691022E1
:1030B800134052D07B68102213404ED0FB685B8DC2
:1030C8009BB2002B2DD1FB6841229B5CDBB2282BE5
:1030D8000BD17A6980239B049A4206D13A69FB682E
:1030E8001100180000F04AFB36E0FB6841229B5CA7
:1030F800DBB2292B10D17B69594A93420CD0FB686B
:103108001B681022DA61FB68180000F09AFCFB6863
:10311800180000F0AFF91FE0FB681B681022DA61A5
:1031280091E0FB681B681022DA61FB685B6C042283
:103138001A43FB685A647B69002B05D07A6980239F
:103148005B049A4200D07EE0FB685A6CFB68110071
:10315800180000F06BFB76E075E03B690422134031
:103168002FD07B68042213402BD0FB685B8D9BB269
:10317800002B18D0FB681B685A6AFB685B6AD2B2DE
:103188001A70FB685B6A5A1CFB685A62FB681B8DE5
:10319800013B9AB2FB681A85FB685B8D9BB2013BC9
:1031A8009AB2FB685A85FB685B8D9BB2002B4CD1A9
:1031B8007B692B4A934248D0FB68180000F05AF903
:1031C80043E03B69082213400AD07B680822134079
:1031D80006D03A69FB681100180000F0A7F835E03E
:1031E8003B690222134031D07B68022213402DD064
:1031F800FB685B8D9BB2002B18D0FB685B6A1A7862
:10320800FB681B689A62FB685B6A5A1CFB685A6217
:10321800FB685B8D9BB2013B9AB2FB685A85FB68E1
:103228001B8D013B9AB2FB681A850FE07A698023EF
:103238005B049A4202D07B69002B07D1FB68180017
:1032480000F018F902E0C04600E0C046FB684022E2
:103258000021995400231800BD4606B080BDC04621
:103268000000FFFFB0B586B002AFF8600C00100098
:1032780019000A257B19221C1A800823FB18021C36
:103288001A80BB1D0A1C1A80BB1D1B88DAB280235A
:103298005C047B191988F868234B0093230000F01D
:1032A80045FE7A6A396AFB68180000F04AFC031E7A
:1032B80001D0012333E0BB1D1B88012B07D1082354
:1032C800FB181B88DAB2FB681B689A6219E00823AE
:1032D800FB181B881B0A9BB2DAB2FB681B689A6250
:1032E8007A6A396AFB68180000F02BFC031E01D0CB
:1032F800012314E00823FB181B88DAB2FB681B685B
:103308009A623A6AF8687B6A009313000022802167
:1033180000F0D8FB031E01D0012300E000231800B1
:10332800BD4604B0B0BDC04600200080B0B584B032
:1033380000AF786039607B6841229B5CDBB21A0081
:1033480028231340282B00D088E07B681B689B69E2
:103358001B0CDAB20F257B1901210A401A707B6811
:103368001B689B691B0C9AB20C203B18FE210A4073
:103378001A807B681B689B689AB20A243B199205DD
:10338800920D1A807B681B68DB689AB20823FB18C9
:10339800FE210A401A807B68DB68022B48D1210095
:1033A8007B181B88DB099AB23B181B8853409BB2D9
:1033B8001A000623134020D13B187A1812881A8065
:1033C8007B689B6C5A1C7B689A647B689B6C022B9D
:1033D8004CD17B6800229A647B681B680822DA61FA
:1033E8007B684022002199543B181A887B19197868
:1033F8007B681800FFF70DFE38E00C243B19082203
:10340800BA1812881A8080231A027B6811001800E3
:1034180000F0C6FD7B684022002199543B191A88A8
:103428000F23FB1819787B681800FFF7F2FD1DE0E1
:1034380080231A027B681100180000F0B1FD7B6838
:103448004022002199540C23FB181A880F23FB18DB
:1034580019787B681800FFF7DCFD07E07B681B68BC
:103468000822DA617B68402200219954C046BD4693
:1034780004B0B0BD80B584B000AF78607B681B68CD
:103488001B68FB607B68422200219954FA688023FC
:10349800DB01134008D07B681B681A687B681B68CF
:1034A80024490A401A600CE0FA6880231B02134082
:1034B80007D07B681B681A687B681B681E490A402E
:1034C8001A607B6841229B5CDBB2292B14D17B6894
:1034D8004122282199547B6821221A637B680121A3
:1034E800180000F05DFD7B684022002199547B683C
:1034F8001800FFF77EFD19E07B6841229B5CDBB278
:103508002A2B13D17B684122282199547B682222D7
:103518001A637B680221180000F042FD7B68402294
:10352800002199547B681800FFF76BFDC046BD4623
:1035380004B080BDFFBFFFFFFF7FFFFF80B586B0EF
:1035480000AF786039607B681B681B683B613B682B
:103558007B610F203B187A684121525C1A707B68A6
:103568001B682022DA613B181B78212B03D03B18FB
:103578001B78292B09D17B4A7B681100180000F0C1
:103588000FFD7B6821221A6311E00F22BB181B78FC
:10359800222B03D0BB181B782A2B08D1724A7B68D0
:1035A8001100180000F0FCFC7B6822221A637B687B
:1035B8001B685A687B681B68802109020A435A60A5
:1035C8007B681B685A687B681B6868490A405A60B0
:1035D8007B68180000F035FA3A698023DB01134054
:1035E80013D07B681B681A687B681B6860490A40AF
:1035F8001A607B689B6B002B1FD07B689B6B1B68DA
:103608005B689AB27B685A8517E03A6980231B0287
:10361800134012D07B681B681A687B681B68554981
:103628000A401A607B68DB6B002B06D07B68DB6B7B
:103638001B685B689AB27B685A857B6904221340D1
:1036480020D07B69042293437B617B681B685A6A9C
:103658007B685B6AD2B21A707B685B6A5A1C7B68AB
:103668005A627B681B8D002B0CD07B681B8D013B3D
:103678009AB27B681A857B685B8D9BB2013B9AB2D4
:103688007B685A857B685B8D9BB2002B05D07B6875
:103698005B6C04221A437B685A647B6842220021CF
:1036A80099547B6800225A637B685B6C002B13D0AB
:1036B8007B685A6C7B681100180000F0B7F87B68CB
:1036C80041229B5CDBB2282B47D17A697B681100C9
:1036D800180000F053F840E07B68DB6A264A934202
:1036E80016D07B681800FFF7C5FE7B68224ADA62AD
:1036F8007B684122202199547B6800221A637B68E9
:103708004022002199547B681800FFF792FC24E0BE
:103718007B6841229B5CDBB2222B0FD17B68412264
:10372800202199547B6800221A637B68402200217B
:1037380099547B681800FFF764FC0EE07B6841220F
:10374800202199547B6800221A637B68402200215B
:1037580099547B681800FFF74CFCC046BD4606B07C
:1037680080BDC046018000000280000000E800FE25
:10377800FFBFFFFFFF7FFFFF0000FFFF80B582B0A4
:1037880000AF786039607B68264ADA627B6800227D
:103798001A637B684122202199547B6842220021C8
:1037A80099547B6800225A633B680422134022D054
:1037B8007B681B685A6A7B685B6AD2B21A707B683E
:1037C8005B6A5A1C7B685A627B681B8D002B12D07F
:1037D8007B681B8D013B9AB27B681A857B685B8D81
:1037E8009BB2013B9AB27B685A857B685B6C04226A
:1037F8001A437B685A640C4A7B681100180000F071
:10380800CFFB7B681B681022DA617B6840220021AD
:1038180099547B681800FFF70CFCC046BD4602B0FF
:1038280080BDC0460000FFFF0380000080B584B063
:1038380000AF786039600F203B187A684121525CEC
:103848001A707B684222002199547B68624ADA62C6
:103858007B6800225A857B685A6C3B681A437B68F0
:103868005A643B181B78282B07D03B181B78292B48
:1038780003D03B181B782A2B0CD17B680321180036
:1038880000F08EFB7B684122282199547B68534ABB
:103898005A6312E0524A7B681100180000F080FB5E
:1038A8007B6841229B5CDBB2602B03D07B684122A2
:1038B800202199547B6800225A637B681B6BBB608C
:1038C8007B689B6B002B3BD0BB68112B02D0BB687D
:1038D800212B35D17B681B681A688023DB011A40CD
:1038E8008023DB019A4207D17B681B681A687B68D2
:1038F8001B683C490A401A607B689B6B1800FEF7FE
:10390800A3FD0300012B16D07B689B6B364A9A6394
:103918007B684022002199547B689B6B1800FEF756
:1039280029FD031E51D07B689B6B9A6B7B689B6B50
:103938001800904749E07B68180000F059F844E007
:103948007B68DB6B002B3BD0BB68122B02D0BB68BB
:10395800222B35D17B681B681A6880231B021A400A
:1039680080231B029A4207D17B681B681A687B6810
:103978001B681E490A401A607B68DB6B1800FEF75B
:1039880063FD0300012B16D07B68DB6B164A9A6334
:103998007B684022002199547B68DB6B1800FEF796
:1039A800E9FC031E13D07B68DB6B9A6B7B68DB6BCF
:1039B800180090470BE07B68180000F019F806E043
:1039C8007B68180000F014F802E0C04600E0C0462A
:1039D800C046BD4604B080BD0000FFFF6D30000842
:1039E80003800000FFBFFFFF8F3A0008FF7FFFFF43
:1039F80080B582B000AF78607B6841229B5CDBB207
:103A0800602B0FD17B684122202199547B680022CA
:103A18001A637B684022002199547B681800FFF7DD
:103A280018FB0AE07B6800221A637B6840220021A9
:103A380099547B681800FFF704FBC046BD4602B0E6
:103A480080BD80B582B000AF78607B681B689B69D9
:103A580002221340022B03D17B681B6800229A6262
:103A68007B681B689B6901221340012B07D07B6888
:103A78001B689A697B681B6801210A439A61C046E2
:103A8800BD4602B080BD80B584B000AF78607B6869
:103A98009B6AFB60FB689B6B002B03D0FB689B6BEE
:103AA80000229A63FB68DB6B002B03D0FB68DB6B9F
:103AB80000229A63FB681800FFF79AFFC046BD46CC
:103AC80004B080BD80B584B000AFF860B9603B60D9
:103AD800FB1D1A7021E03B6801331ED0FEF762FB24
:103AE8000200BB69D31A3A689A4202D33B68002B9A
:103AF80013D1FB685B6C20221A43FB685A64FB688D
:103B0800412220219954FB68422200219954FB68E4
:103B180040220021995401230FE0FB681B689B6930
:103B2800BA681340BA68D31A5A425341DBB21A0032
:103B3800FB1D1B789A42CED000231800BD4604B066
:103B480080BD80B584B000AFF860B9607A602BE0C2
:103B58007A68B968FB68180000F0E8F8031E01D01D
:103B6800012329E0BB6801331ED0FEF71BFB0200CE
:103B78007B68D31ABA689A4202D3BB68002B13D168
:103B8800FB685B6C20221A43FB685A64FB6841227D
:103B980020219954FB68422200219954FB68402255
:103BA80000219954012307E0FB681B689B690222E6
:103BB8001340022BCCD100231800BD4604B080BDB1
:103BC80080B584B000AFF860B9607A6028E07A68A0
:103BD800B968FB68180000F0A9F8031E01D001239A
:103BE80026E0FEF7DFFA02007B68D31ABA689A4229
:103BF80002D3BB68002B13D1FB685B6C20221A43ED
:103C0800FB685A64FB68412220219954FB684222D0
:103C180000219954FB68402200219954012307E0B0
:103C2800FB681B689B6920221340202BCFD10023FF
:103C38001800BD4604B080BD80B584B000AFF86000
:103C4800B9607A6064E07A68B968FB68180000F0C7
:103C58006DF8031E01D0012362E0FB681B689B69B5
:103C680020221340202B38D1FB681B689B69042253
:103C78001340042B05D1FB681B8D002B01D00023BA
:103C88004EE0FB681B689B6910221340102B07D17C
:103C9800FB681B681022DA61FB6804225A6402E0A0
:103CA800FB6800225A64FB681B682022DA61FB6803
:103CB8001B685A68FB681B681B490A405A60FB6806
:103CC800412220219954FB68422200219954FB6823
:103CD800402200219954012322E0FEF763FA0200F2
:103CE8007B68D31ABA689A4202D3BB68002B0FD1FB
:103CF800FB685B6C20221A43FB685A64FB6841220C
:103D080020219954FB68402200219954012307E09F
:103D1800FB681B689B6904221340042B93D1002382
:103D28001800BD4604B080BD00E800FE90B58BB019
:103D380000AFF860B9607A602723FB1800221A7078
:103D4800FB681B689B69BB6100233B627B68FB6166
:103D5800BB691022134000D182E0FB681B68102267
:103D6800DA6160E027243B193A1912781A70BB68A7
:103D7800013358D0FEF716FA0200FB69D31ABA6865
:103D88009A4206D33B193A1912781A70BB68002B6D
:103D980049D1FB681B685A688023DB0113407B61AB
:103DA80013203B18FA684221525C1A70FB681B68A2
:103DB8009A6980231B021A4080231B029A4226D14B
:103DC8007A698023DB019A4221D03B181B78202B8B
:103DD8001DD0FB681B685A68FB681B688021C901F5
:103DE8000A435A60FEF7DEF90300FB610FE0FEF7B5
:103DF800D9F90200FB69D31A192B08D93B6A20228A
:103E080013433B622723FB1801221A700BE0FB685F
:103E18001B689B692022134027217A187918097892
:103E28001170202BE3D1FB681B689B69202213408B
:103E3800202B04D02723FB181B78002B92D0272394
:103E4800FB181B78002B03D1FB681B682022DA6162
:103E58003B6A042213433B622723FB1801221A7092
:103E6800FB681B689B69BB61BA6980235B001340D0
:103E78000CD03B6A012213433B62FB681B6880221B
:103E88005200DA612723FB1801221A70BA698023CD
:103E9800DB0013400CD03B6A082213433B62FB68EB
:103EA8001B688022D200DA612723FB1801221A70CE
:103EB800BA6980239B0013400CD03B6A022213434B
:103EC8003B62FB681B6880229200DA612723FB189B
:103ED80001221A702723FB181B78002B1DD0FB68C2
:103EE8001800FFF7AEFDFB681B685A68FB681B6883
:103EF8000D490A405A60FB685A6C3B6A1A43FB68D2
:103F08005A64FB68412220219954FB68422200210F
:103F18009954FB684022002199542723FB181B78E9
:103F28001800BD460BB090BD00E800FE90B587B004
:103F380000AFF860080011007B600A243B19021CDE
:103F48001A8009203B180A1C1A703B191B889B050C
:103F58009A0D3B181B781904FF231B040B401A43C6
:103F68007B681A43BB6A13435B005B087B61FB6891
:103F78001B685B68BA6A510D8022D2000A40074963
:103F88000A43D2431A401100FB681B687A690A4346
:103F98005A60C046BD4607B090BDC046FF63FF03E8
:103FA80080B584B000AF78600A00BB1C1A8000237B
:103FB800FB60BB1C1B880122134010D0FB68422207
:103FC8001343FB607B6841229B5CDBB21A00282309
:103FD8001340282B03D0FB68B0221343FB60BB1CA3
:103FE8001B880222134010D0FB6844221343FB6055
:103FF8007B6841229B5CDBB21A0028231340282BE4
:1040080003D0FB68B0221343FB60BB1C00229B5EFD
:10401800002B03DAFB68B8221343FB60BB1C1B8828
:10402800102B03D1FB6890221343FB60BB1C1B8839
:10403800202B03D1FB6820221343FB60BB1C1B8889
:10404800402B03D1FB6840221343FB607B681B684D
:104058001A68FB68D9437B681B680A401A60C04627
:10406800BD4604B080BD000080B582B000AF786066
:1040780039607B6841229B5CDBB2202B38D17B689E
:1040880040229B5C012B01D1022332E07B68402255
:10409800012199547B684122242199547B681B682B
:1040A8001A687B681B6801218A431A607B681B6851
:1040B8001A687B681B6811490A401A607B681B688C
:1040C80019687B681B683A680A431A607B681B6832
:1040D8001A687B681B6801210A431A607B684122C1
:1040E800202199547B68402200219954002300E044
:1040F80002231800BD4602B080BDC046FFEFFFFF97
:1041080080B584B000AF786039607B6841229B5CE1
:10411800DBB2202B39D17B6840229B5C012B01D17B
:10412800022333E07B684022012199547B684122B5
:10413800242199547B681B681A687B681B680121D5
:104148008A431A607B681B681B68FB60FB68114A1E
:104158001340FB603B681B02FA681343FB607B68F3
:104168001B68FA681A607B681B681A687B681B689A
:1041780001210A431A607B684122202199547B68F7
:10418800402200219954002300E002231800BD4674
:1041980004B080BDFFF0FFFF80B584B000AF786049
:1041A800194B1B68194A13401900174B7A680A43C0
:1041B8001A607A6880239B009A421FD1144B1A68B0
:1041C80013005B009B185B0012491800FBF794FF73
:1041D80003000133FB6008E0FB68002B03D0FB6899
:1041E800013BFB6001E0032309E0074B5A69802388
:1041F800DB001A408023DB009A42EDD00023180030
:10420800BD4604B080BDC04600700040FFF9FFFF06
:104218001000002040420F0080B588B000AF7860E1
:104228007B68002B01D10123F3E27B681B68012224
:10423800134000D17CE0C34B9B6838221340BB611C
:10424800C04BDB68032213407B61BB69102B02D192
:104258007B69032B02D0BB69082B0BD1B94B1A68B9
:1042680080239B02134062D07B685B68002B5ED181
:104278000123CEE27B685A6880235B029A4207D109
:10428800B04B1A68AF4B802149020A431A6020E0FC
:104298007B685A68A023DB029A420ED1A94B1A68A0
:1042A800A84B8021C9020A431A60A64B1A68A54B7D
:1042B800802149020A431A600BE0A24B1A68A14BFD
:1042C800A1490A401A609F4B1A689E4B9F490A40B1
:1042D8001A607B685B68002B14D0FDF763FF03004E
:1042E8003B6108E0FDF75EFF02003B69D31A642BCF
:1042F80001D903238DE2934B1A6880239B02134054
:10430800F0D015E0FDF74EFF03003B6108E0FDF734
:1043180049FF02003B69D31A642B01D9032378E2D1
:10432800884B1A6880239B021340F0D100E0C046F6
:104338007B681B680222134000D199E0814B9B687F
:1043480038221340BB617F4BDB68032213407B613B
:10435800BB69102B02D17B69022B02D0BB69002BF1
:1043680035D1784B1A688023DB00134005D07B6871
:10437800DB68002B01D101234BE2724B5B68744A66
:10438800134019007B685B691A026E4B0A435A6036
:10439800BB69002B12D16B4B1B686E4A1340190086
:1043A8007B681A69674B0A431A60664B1B68DB0A0D
:1043B80007221340684ADA40684B1A60684B1B684A
:1043C8001800FDF793FE031E51D0012321E27B68FC
:1043D800DB68002B30D05B4B1B685E4A134019002A
:1043E8007B681A69574B0A431A60564B1A68554B33
:1043F800802149000A431A60FDF7D4FE03003B619F
:1044080008E0FDF7CFFE02003B69D31A022B01D961
:104418000323FEE14B4B1A688023DB001340F0D0E6
:10442800484B5B684A4A134019007B685B691A026B
:10443800444B0A435A601BE0424B1A68414B4949B6
:104448000A401A60FDF7AEFE03003B6108E0FDF785
:10445800A9FE02003B69D31A022B01D90323D8E134
:10446800384B1A688023DB001340F0D100E0C046C7
:104478007B681B680822134047D0324B9B68382260
:104488001340182B0AD12F4B1B6E022213403CD02D
:104498007B689B69002B38D10123BAE17B689B6953
:1044A800002B19D0274B1A6E264B01210A431A6696
:1044B800FDF778FE03003B6108E0FDF773FE02009C
:1044C8003B69D31A022B01D90323A2E11D4B1B6EB2
:1044D80002221340F1D018E01A4B1A6E194B012131
:1044E8008A431A66FDF75EFE03003B6108E0FDF7AC
:1044F80059FE02003B69D31A022B01D9032388E134
:10450800104B1B6E02221340F1D17B681B680422FA
:10451800134000D1C6E01F23FB1800221A70094B74
:104528009B6838221340202B1ED1064BDB6D0222DC
:10453800134000D1B6E07B689B68002B00D0B1E047
:10454800012366E100100240FFFFFEFFFFFFFBFFB3
:10455800FF80FFFFFFC7FFFF0024F40010000020CA
:1045680014000020FFFEFFFFAC4BDA6B80235B05D5
:10457800134001D1012300E00023002B11D0A74BE9
:10458800DA6BA64B802149050A43DA63A34BDA6B41
:1045980080235B051340FB60FB681F23FB18012287
:1045A8001A709F4B1A6880235B0013401AD19C4BEA
:1045B8001A689B4B802149000A431A60FDF7F2FDF7
:1045C80003003B6108E0FDF7EDFD02003B69D31AEB
:1045D800022B01D903231CE1914B1A6880235B004D
:1045E8001340F0D07B689B68012B06D18B4BDA6DAA
:1045F8008A4B01210A43DA651CE07B689B68052B1E
:104608000CD1864BDA6D854B04210A43DA65834B5E
:10461800DA6D824B01210A43DA650BE07F4BDA6DD4
:104628007E4B01218A43DA657C4BDA6D7B4B042192
:104638008A43DA657B689B68002B14D0FDF7B2FDCE
:1046480003003B6109E0FDF7ADFD02003B69D31AA9
:10465800744A934201D90323DBE0704BDB6D0222DD
:104668001340F0D013E0FDF79DFD03003B6109E026
:10467800FDF798FD02003B69D31A6A4A934201D9B3
:104688000323C6E0654BDB6D02221340F0D11F23E4
:10469800FB181B78012B05D1604BDA6B5F4B624925
:1046A8000A40DA637B68DB69002B00D1B0E05B4B22
:1046B8009B6838221340102B00D178E07B68DB69B7
:1046C800022B53D1554B1A68544B58490A401A606B
:1046D800FDF768FD03003B6108E0FDF763FD02009C
:1046E8003B69D31A022B01D9032392E04B4B1A687A
:1046F80080239B041340F0D1484BDB684C4A13409D
:1047080019007B681A6A7B685B6A1A437B689B6A34
:104718001B021A437B68DB6A1A437B681B6B1A43CC
:104728003E4B0A43DA603D4B1A683C4B80214904F2
:104738000A431A60394BDA68384B802149050A4325
:10474800DA60FDF72FFD03003B6108E0FDF72AFD65
:1047580002003B69D31A022B01D9032359E02F4BDE
:104768001A6880239B041340F0D051E02B4B1A6841
:104778002A4B2E490A401A60FDF714FD03003B61DD
:1047880008E0FDF70FFD02003B69D31A022B01D99F
:1047980003233EE0214B1A6880239B041340F0D189
:1047A8001E4BDA681D4B23490A40DA6030E07B680B
:1047B800DB69012B01D101232BE0184BDB687B61FE
:1047C8007B6903221A407B681B6A9A421ED17B6967
:1047D80070221A407B685B6A9A4217D17A69FE2375
:1047E800DB011A407B689B6A1B029A420ED17A69E8
:1047F800F8239B031A407B68DB6A9A4206D17B69DF
:104808005B0F5A077B681B6B9A4201D0012300E0BB
:1048180000231800BD4608B080BDC0460010024005
:104828000070004088130000FFFFFFEFFFFFFFFE4E
:104838008C80C11FFCFFFEEF80B584B000AF7860AC
:1048480039607B68002B01D10123E9E0764B1B68B6
:10485800072213403A689A421ED9734B1B680722F5
:1048680093431900704B3A680A431A60FDF79AFCA3
:104878000300FB6009E0FDF795FC0200FB68D31A12
:104888006A4A934201D90323CAE0674B1B6807228F
:1048980013403A689A42EED17B681B6802221340A3
:1048A80015D07B681B680422134006D0604B9A68B9
:1048B8005F4BE021C9010A439A605D4B9B685D4AE2
:1048C800134019007B689A68594B0A439A607B68C1
:1048D8001B680122134057D07B685B68012B07D106
:1048E800534B1A6880239B0213402BD1012397E076
:1048F8007B685B68022B07D14D4B1A6880239B04A9
:1049080013401FD101238BE07B685B68002B07D124
:10491800474B1A688023DB00134013D101237FE043
:104928007B685B68032B06D1414B1B6E0222134048
:1049380008D1012374E03E4BDB6D0222134001D104
:1049480001236DE03A4B9B680722934319007B686B
:104958005A68374B0A439A60FDF724FC0300FB6052
:1049680009E0FDF71FFC0200FB68D31A2F4A9342A7
:1049780001D9032354E02E4B9B6838221A407B68E8
:104988005B68DB009A42ECD1274B1B680722134077
:104998003A689A421ED2244B1B6807229343190097
:1049A800214B3A680A431A60FDF7FCFB0300FB60E1
:1049B80009E0FDF7F7FB0200FB68D31A1B4A934294
:1049C80001D903232CE0184B1B68072213403A68CF
:1049D8009A42EED17B681B680422134009D0144B1D
:1049E8009B68154A134019007B68DA68104B0A4324
:1049F8009A6000F029F801000D4B9B681B0A0F22F2
:104A08001A400E4B9200D3581F2213400A00DA4076
:104A18000B4B1A600B4B1B681800FDF767FB030074
:104A28001800BD4604B080BD002002408813000075
:104A380000100240FFF0FFFFFF8FFFFF044C00084B
:104A4800100000201400002080B586B000AF3C4B59
:104A58009B68382213400FD1394B1B68DB0A0722A9
:104A6800134001229A4013003B6039683548FBF730
:104A780043FB03003B615DE0314B9B6838221340E8
:104A8800082B02D1304B3B6154E02D4B9B683822F8
:104A98001340102B38D12A4BDB6803221340FB60EC
:104AA800274BDB681B09072213400133BB60FB68F7
:104AB800032B0DD1B9682448FBF71EFB030019002E
:104AC8001F4BDB681B0A7F2213404B437B610DE0C1
:104AD800B9681C48FBF710FB03001900184BDB688A
:104AE8001B0A7F2213404B437B61C046144BDB6893
:104AF8005B0F0722134001337B6079687869FBF705
:104B0800FBFA03003B6115E00D4B9B68382213400C
:104B1800202B03D180231B023B610BE0084B9B68D1
:104B280038221340182B03D1FA23DB013B6101E043
:104B380000233B613B691800BD4606B080BDC046F6
:104B4800001002400024F40000127A0003008218CA
:104B5800934200D1704719700133F9E770B5002608
:104B68000C4C0D4D641BA410A64209D1002600F080
:104B780019F80A4C0A4D641BA410A64205D170BD51
:104B8800B300EB5898470136EEE7B300EB58984767
:104B98000136F2E7444C0008444C0008484C000831
:104BA800444C0008F8B5C046F8BC08BC9E4670479F
:0C4BB800F8B5C046F8BC08BC9E4670472B
:104BC40004050008F2040008D0040008FA040008F0
:104BD400D0040008CA070008D0040008FA0400083A
:104BE400F2040008F2040008CA070008FA040008E6
:104BF400BC040008BC040008BC0400084208000807
:104C040000000000000000000000000000000000A0
:104C14000000000000000000000000000000000090
:104C24000100000002000000030000000400000076
:104C34000600000007000000080000000900000052
:044C4400E100000883
:044C4800B9000008A7
:104C4C00FFFE8501020304002100000001000000AA
:0C4C5C000024F40004000000010000002F
:04000005080020616E
:00000001FF
